{
    "contractName": "ApeBlenderImpl",
    "abi": [
        {
            "inputs": [
                {
                    "internalType": "uint256",
                    "name": "_apeFeeBps",
                    "type": "uint256"
                },
                {
                    "internalType": "address payable",
                    "name": "_feeTreasury",
                    "type": "address"
                },
                {
                    "internalType": "address",
                    "name": "_exchangeRouter",
                    "type": "address"
                },
                {
                    "internalType": "address",
                    "name": "_wNative",
                    "type": "address"
                },
                {
                    "internalType": "uint256",
                    "name": "_exchangeSwapFeeNumerator",
                    "type": "uint256"
                },
                {
                    "internalType": "uint256",
                    "name": "_exchangeSwapFeeDenominator",
                    "type": "uint256"
                }
            ],
            "stateMutability": "nonpayable",
            "type": "constructor"
        },
        {
            "anonymous": false,
            "inputs": [
                {
                    "indexed": true,
                    "internalType": "address",
                    "name": "previousOwner",
                    "type": "address"
                },
                {
                    "indexed": true,
                    "internalType": "address",
                    "name": "newOwner",
                    "type": "address"
                }
            ],
            "name": "OwnershipTransferred",
            "type": "event"
        },
        {
            "inputs": [],
            "name": "apeFeeBps",
            "outputs": [
                {
                    "internalType": "uint256",
                    "name": "",
                    "type": "uint256"
                }
            ],
            "stateMutability": "view",
            "type": "function",
            "constant": true
        },
        {
            "inputs": [],
            "name": "exchangeRouter",
            "outputs": [
                {
                    "internalType": "contract IUniswapV2Router02",
                    "name": "",
                    "type": "address"
                }
            ],
            "stateMutability": "view",
            "type": "function",
            "constant": true
        },
        {
            "inputs": [],
            "name": "exchangeSwapFeeDenominator",
            "outputs": [
                {
                    "internalType": "uint256",
                    "name": "",
                    "type": "uint256"
                }
            ],
            "stateMutability": "view",
            "type": "function",
            "constant": true
        },
        {
            "inputs": [],
            "name": "exchangeSwapFeeNumerator",
            "outputs": [
                {
                    "internalType": "uint256",
                    "name": "",
                    "type": "uint256"
                }
            ],
            "stateMutability": "view",
            "type": "function",
            "constant": true
        },
        {
            "inputs": [],
            "name": "feeTreasury",
            "outputs": [
                {
                    "internalType": "address payable",
                    "name": "",
                    "type": "address"
                }
            ],
            "stateMutability": "view",
            "type": "function",
            "constant": true
        },
        {
            "inputs": [],
            "name": "owner",
            "outputs": [
                {
                    "internalType": "address",
                    "name": "",
                    "type": "address"
                }
            ],
            "stateMutability": "view",
            "type": "function",
            "constant": true
        },
        {
            "inputs": [],
            "name": "renounceOwnership",
            "outputs": [],
            "stateMutability": "nonpayable",
            "type": "function"
        },
        {
            "inputs": [
                {
                    "internalType": "address",
                    "name": "newOwner",
                    "type": "address"
                }
            ],
            "name": "transferOwnership",
            "outputs": [],
            "stateMutability": "nonpayable",
            "type": "function"
        },
        {
            "inputs": [],
            "name": "wNative",
            "outputs": [
                {
                    "internalType": "contract IWETH",
                    "name": "",
                    "type": "address"
                }
            ],
            "stateMutability": "view",
            "type": "function",
            "constant": true
        },
        {
            "stateMutability": "payable",
            "type": "receive",
            "payable": true
        },
        {
            "inputs": [
                {
                    "components": [
                        {
                            "internalType": "address",
                            "name": "token",
                            "type": "address"
                        },
                        {
                            "internalType": "uint256",
                            "name": "amount",
                            "type": "uint256"
                        },
                        {
                            "internalType": "address[]",
                            "name": "tokenToNativePath",
                            "type": "address[]"
                        }
                    ],
                    "internalType": "struct ApeBlenderImpl.InputToken[]",
                    "name": "inputTokens",
                    "type": "tuple[]"
                },
                {
                    "components": [
                        {
                            "internalType": "address",
                            "name": "token",
                            "type": "address"
                        },
                        {
                            "internalType": "uint256",
                            "name": "amount",
                            "type": "uint256"
                        },
                        {
                            "internalType": "address[]",
                            "name": "token0ToNativePath",
                            "type": "address[]"
                        },
                        {
                            "internalType": "address[]",
                            "name": "token1ToNativePath",
                            "type": "address[]"
                        }
                    ],
                    "internalType": "struct ApeBlenderImpl.InputLP[]",
                    "name": "inputLPs",
                    "type": "tuple[]"
                },
                {
                    "internalType": "uint256",
                    "name": "minOutputAmount",
                    "type": "uint256"
                }
            ],
            "name": "swapTokensToNative",
            "outputs": [],
            "stateMutability": "payable",
            "type": "function",
            "payable": true
        },
        {
            "inputs": [
                {
                    "components": [
                        {
                            "internalType": "address",
                            "name": "token",
                            "type": "address"
                        },
                        {
                            "internalType": "uint256",
                            "name": "amount",
                            "type": "uint256"
                        },
                        {
                            "internalType": "address[]",
                            "name": "tokenToNativePath",
                            "type": "address[]"
                        }
                    ],
                    "internalType": "struct ApeBlenderImpl.InputToken[]",
                    "name": "inputTokens",
                    "type": "tuple[]"
                },
                {
                    "components": [
                        {
                            "internalType": "address",
                            "name": "token",
                            "type": "address"
                        },
                        {
                            "internalType": "uint256",
                            "name": "amount",
                            "type": "uint256"
                        },
                        {
                            "internalType": "address[]",
                            "name": "token0ToNativePath",
                            "type": "address[]"
                        },
                        {
                            "internalType": "address[]",
                            "name": "token1ToNativePath",
                            "type": "address[]"
                        }
                    ],
                    "internalType": "struct ApeBlenderImpl.InputLP[]",
                    "name": "inputLPs",
                    "type": "tuple[]"
                },
                {
                    "internalType": "address[]",
                    "name": "nativeToOutputPath",
                    "type": "address[]"
                },
                {
                    "internalType": "uint256",
                    "name": "minOutputAmount",
                    "type": "uint256"
                }
            ],
            "name": "swapTokensToToken",
            "outputs": [],
            "stateMutability": "payable",
            "type": "function",
            "payable": true
        },
        {
            "inputs": [
                {
                    "components": [
                        {
                            "internalType": "address",
                            "name": "token",
                            "type": "address"
                        },
                        {
                            "internalType": "uint256",
                            "name": "amount",
                            "type": "uint256"
                        },
                        {
                            "internalType": "address[]",
                            "name": "tokenToNativePath",
                            "type": "address[]"
                        }
                    ],
                    "internalType": "struct ApeBlenderImpl.InputToken[]",
                    "name": "inputTokens",
                    "type": "tuple[]"
                },
                {
                    "components": [
                        {
                            "internalType": "address",
                            "name": "token",
                            "type": "address"
                        },
                        {
                            "internalType": "uint256",
                            "name": "amount",
                            "type": "uint256"
                        },
                        {
                            "internalType": "address[]",
                            "name": "token0ToNativePath",
                            "type": "address[]"
                        },
                        {
                            "internalType": "address[]",
                            "name": "token1ToNativePath",
                            "type": "address[]"
                        }
                    ],
                    "internalType": "struct ApeBlenderImpl.InputLP[]",
                    "name": "inputLPs",
                    "type": "tuple[]"
                },
                {
                    "internalType": "address[]",
                    "name": "nativeToToken0Path",
                    "type": "address[]"
                },
                {
                    "internalType": "address[]",
                    "name": "nativeToToken1Path",
                    "type": "address[]"
                },
                {
                    "internalType": "address",
                    "name": "outputLP",
                    "type": "address"
                },
                {
                    "internalType": "uint256",
                    "name": "minOutputAmount",
                    "type": "uint256"
                }
            ],
            "name": "swapTokensToLP",
            "outputs": [],
            "stateMutability": "payable",
            "type": "function",
            "payable": true
        },
        {
            "inputs": [
                {
                    "internalType": "uint256",
                    "name": "amtA",
                    "type": "uint256"
                },
                {
                    "internalType": "uint256",
                    "name": "amtB",
                    "type": "uint256"
                },
                {
                    "internalType": "uint256",
                    "name": "resA",
                    "type": "uint256"
                },
                {
                    "internalType": "uint256",
                    "name": "resB",
                    "type": "uint256"
                }
            ],
            "name": "calculateOptimalSwapAmount",
            "outputs": [
                {
                    "internalType": "uint256",
                    "name": "",
                    "type": "uint256"
                }
            ],
            "stateMutability": "view",
            "type": "function",
            "constant": true
        },
        {
            "inputs": [
                {
                    "internalType": "uint256",
                    "name": "wNativeAmount",
                    "type": "uint256"
                },
                {
                    "internalType": "address[]",
                    "name": "nativeToOutputPath",
                    "type": "address[]"
                }
            ],
            "name": "getWNativeToTokenAmount",
            "outputs": [
                {
                    "internalType": "uint256",
                    "name": "",
                    "type": "uint256"
                }
            ],
            "stateMutability": "view",
            "type": "function",
            "constant": true
        },
        {
            "inputs": [
                {
                    "internalType": "uint256",
                    "name": "wNativeAmount",
                    "type": "uint256"
                },
                {
                    "internalType": "address[]",
                    "name": "nativeToToken0Path",
                    "type": "address[]"
                },
                {
                    "internalType": "address[]",
                    "name": "nativeToToken1Path",
                    "type": "address[]"
                }
            ],
            "name": "getWNativeToLpAmount",
            "outputs": [
                {
                    "internalType": "uint256",
                    "name": "",
                    "type": "uint256"
                }
            ],
            "stateMutability": "view",
            "type": "function",
            "constant": true
        },
        {
            "inputs": [
                {
                    "internalType": "uint256",
                    "name": "_apeFeeBps",
                    "type": "uint256"
                }
            ],
            "name": "setApeFeeBps",
            "outputs": [],
            "stateMutability": "nonpayable",
            "type": "function"
        },
        {
            "inputs": [
                {
                    "internalType": "address",
                    "name": "_feeTreasury",
                    "type": "address"
                }
            ],
            "name": "setFeeTreasury",
            "outputs": [],
            "stateMutability": "nonpayable",
            "type": "function"
        },
        {
            "inputs": [
                {
                    "internalType": "address",
                    "name": "router",
                    "type": "address"
                },
                {
                    "internalType": "uint256",
                    "name": "_exchangeSwapFeeNumerator",
                    "type": "uint256"
                },
                {
                    "internalType": "uint256",
                    "name": "_exchangeSwapFeeDenominator",
                    "type": "uint256"
                }
            ],
            "name": "setExchange",
            "outputs": [],
            "stateMutability": "nonpayable",
            "type": "function"
        }
    ],
    "bytecode": "0x60806040523480156200001157600080fd5b50604051620055613803806200556183398181016040528101906200003791906200023f565b600062000049620001f260201b60201c565b9050806000806101000a81548173ffffffffffffffffffffffffffffffffffffffff021916908373ffffffffffffffffffffffffffffffffffffffff1602179055508073ffffffffffffffffffffffffffffffffffffffff16600073ffffffffffffffffffffffffffffffffffffffff167f8be0079c531659141344cd1fd0a4f28419497f9722a3daafe3b4186f6b6457e060405160405180910390a3508560018190555084600260006101000a81548173ffffffffffffffffffffffffffffffffffffffff021916908373ffffffffffffffffffffffffffffffffffffffff16021790555083600460006101000a81548173ffffffffffffffffffffffffffffffffffffffff021916908373ffffffffffffffffffffffffffffffffffffffff16021790555082600360006101000a81548173ffffffffffffffffffffffffffffffffffffffff021916908373ffffffffffffffffffffffffffffffffffffffff16021790555081600581905550806006819055507fffffffffffffffffffffffffffffffffffffffffffffffffffffffffffffffff60078190555050505050505062000375565b600033905090565b6000815190506200020b8162000327565b92915050565b600081519050620002228162000341565b92915050565b60008151905062000239816200035b565b92915050565b60008060008060008060c087890312156200025957600080fd5b60006200026989828a0162000228565b96505060206200027c89828a0162000211565b95505060406200028f89828a01620001fa565b9450506060620002a289828a01620001fa565b9350506080620002b589828a0162000228565b92505060a0620002c889828a0162000228565b9150509295509295509295565b6000620002e282620002fd565b9050919050565b6000620002f682620002fd565b9050919050565b600073ffffffffffffffffffffffffffffffffffffffff82169050919050565b6000819050919050565b6200033281620002d5565b81146200033e57600080fd5b50565b6200034c81620002e9565b81146200035857600080fd5b50565b62000366816200031d565b81146200037257600080fd5b50565b6151dc80620003856000396000f3fe60806040526004361061010c5760003560e01c8063715018a611610095578063b5cd0a5611610064578063b5cd0a5614610335578063b637d5d014610372578063bfa37e371461039d578063ee57b3a0146103c6578063f2fde38b146103e257610113565b8063715018a61461028d5780638da5cb5b146102a45780638e461975146102cf578063ac93bfa7146102f857610113565b80632d68efc9116100dc5780632d68efc9146101c7578063474a4575146101f257806347bf69921461021b5780635f93dd921461024657806360dc23401461026257610113565b806292e79c1461011857806306e71fc1146101435780631cb858181461015f5780631e8cf6141461018a57610113565b3661011357005b600080fd5b34801561012457600080fd5b5061012d61040b565b60405161013a9190614dfe565b60405180910390f35b61015d6004803603810190610158919061419b565b610411565b005b34801561016b57600080fd5b50610174610609565b6040516101819190614c26565b60405180910390f35b34801561019657600080fd5b506101b160048036038101906101ac9190614483565b61062f565b6040516101be9190614dfe565b60405180910390f35b3480156101d357600080fd5b506101dc61082c565b6040516101e99190614c41565b60405180910390f35b3480156101fe57600080fd5b5061021960048036038101906102149190613fb8565b610852565b005b34801561022757600080fd5b50610230610922565b60405161023d9190614dfe565b60405180910390f35b610260600480360381019061025b91906140f0565b610928565b005b34801561026e57600080fd5b50610277610b68565b6040516102849190614a95565b60405180910390f35b34801561029957600080fd5b506102a2610b8e565b005b3480156102b057600080fd5b506102b9610cc9565b6040516102c69190614a5f565b60405180910390f35b3480156102db57600080fd5b506102f660048036038101906102f191906142d3565b610cf2565b005b34801561030457600080fd5b5061031f600480360381019061031a9190614325565b610d78565b60405161032c9190614dfe565b60405180910390f35b34801561034157600080fd5b5061035c60048036038101906103579190614379565b610f64565b6040516103699190614dfe565b60405180910390f35b34801561037e57600080fd5b5061038761191e565b6040516103949190614dfe565b60405180910390f35b3480156103a957600080fd5b506103c460048036038101906103bf9190613f66565b611924565b005b6103e060048036038101906103db9190614007565b6119e4565b005b3480156103ee57600080fd5b5061040960048036038101906104049190613f66565b611e63565b005b60065481565b600082511115610438576104248261200d565b506104366104318361210b565b6124a4565b505b6000835111156104575761044b83612724565b50610455836124a4565b505b6000600360009054906101000a900473ffffffffffffffffffffffffffffffffffffffff1673ffffffffffffffffffffffffffffffffffffffff166370a08231306040518263ffffffff1660e01b81526004016104b49190614a7a565b60206040518083038186803b1580156104cc57600080fd5b505afa1580156104e0573d6000803e3d6000fd5b505050506040513d601f19601f8201168201806040525081019061050491906142fc565b9050600360009054906101000a900473ffffffffffffffffffffffffffffffffffffffff1673ffffffffffffffffffffffffffffffffffffffff16632e1a7d4d826040518263ffffffff1660e01b81526004016105619190614dfe565b600060405180830381600087803b15801561057b57600080fd5b505af115801561058f573d6000803e3d6000fd5b5050505060006105a8348361282290919063ffffffff16565b90506105b381612877565b9050828110156105f8576040517f08c379a00000000000000000000000000000000000000000000000000000000081526004016105ef90614c7e565b60405180910390fd5b6106023382612900565b5050505050565b600460009054906101000a900473ffffffffffffffffffffffffffffffffffffffff1681565b600061064483856129fe90919063ffffffff16565b61065783876129fe90919063ffffffff16565b1015610698576040517f08c379a000000000000000000000000000000000000000000000000000000000815260040161068f90614dbe565b60405180910390fd5b60006106b1600554600654612a6e90919063ffffffff16565b905060006106f1856106e36005546106d560026006546129fe90919063ffffffff16565b612a6e90919063ffffffff16565b6129fe90919063ffffffff16565b9050600061072c61070b87896129fe90919063ffffffff16565b61071e878b6129fe90919063ffffffff16565b612a6e90919063ffffffff16565b9050600061077b8761076d61074a898c61282290919063ffffffff16565b61075f600654876129fe90919063ffffffff16565b612abe90919063ffffffff16565b6129fe90919063ffffffff16565b905060006107a5600461079784886129fe90919063ffffffff16565b6129fe90919063ffffffff16565b905060006107d66107d1836107c388896129fe90919063ffffffff16565b61282290919063ffffffff16565b612b14565b905060006107ed8683612a6e90919063ffffffff16565b905060006108056002896129fe90919063ffffffff16565b905061081a8183612abe90919063ffffffff16565b98505050505050505050949350505050565b600360009054906101000a900473ffffffffffffffffffffffffffffffffffffffff1681565b61085a612b76565b73ffffffffffffffffffffffffffffffffffffffff16610878610cc9565b73ffffffffffffffffffffffffffffffffffffffff16146108ce576040517f08c379a00000000000000000000000000000000000000000000000000000000081526004016108c590614d7e565b60405180910390fd5b82600460006101000a81548173ffffffffffffffffffffffffffffffffffffffff021916908373ffffffffffffffffffffffffffffffffffffffff1602179055508160058190555080600681905550505050565b60055481565b60003411156109b557600360009054906101000a900473ffffffffffffffffffffffffffffffffffffffff1673ffffffffffffffffffffffffffffffffffffffff1663d0e30db0346040518263ffffffff1660e01b81526004016000604051808303818588803b15801561099b57600080fd5b505af11580156109af573d6000803e3d6000fd5b50505050505b6000835111156109dc576109c88361200d565b506109da6109d58461210b565b6124a4565b505b6000845111156109fb576109ef84612724565b506109f9846124a4565b505b6000600360009054906101000a900473ffffffffffffffffffffffffffffffffffffffff1673ffffffffffffffffffffffffffffffffffffffff166370a08231306040518263ffffffff1660e01b8152600401610a589190614a7a565b60206040518083038186803b158015610a7057600080fd5b505afa158015610a84573d6000803e3d6000fd5b505050506040513d601f19601f82011682018060405250810190610aa891906142fc565b90506000610ab68285612b7e565b9050610ad984600186510381518110610acb57fe5b602002602001015182612db7565b905082811015610b1e576040517f08c379a0000000000000000000000000000000000000000000000000000000008152600401610b1590614c7e565b60405180910390fd5b610b60338286600188510381518110610b3357fe5b602002602001015173ffffffffffffffffffffffffffffffffffffffff16612e629092919063ffffffff16565b505050505050565b600260009054906101000a900473ffffffffffffffffffffffffffffffffffffffff1681565b610b96612b76565b73ffffffffffffffffffffffffffffffffffffffff16610bb4610cc9565b73ffffffffffffffffffffffffffffffffffffffff1614610c0a576040517f08c379a0000000000000000000000000000000000000000000000000000000008152600401610c0190614d7e565b60405180910390fd5b600073ffffffffffffffffffffffffffffffffffffffff166000809054906101000a900473ffffffffffffffffffffffffffffffffffffffff1673ffffffffffffffffffffffffffffffffffffffff167f8be0079c531659141344cd1fd0a4f28419497f9722a3daafe3b4186f6b6457e060405160405180910390a360008060006101000a81548173ffffffffffffffffffffffffffffffffffffffff021916908373ffffffffffffffffffffffffffffffffffffffff160217905550565b60008060009054906101000a900473ffffffffffffffffffffffffffffffffffffffff16905090565b610cfa612b76565b73ffffffffffffffffffffffffffffffffffffffff16610d18610cc9565b73ffffffffffffffffffffffffffffffffffffffff1614610d6e576040517f08c379a0000000000000000000000000000000000000000000000000000000008152600401610d6590614d7e565b60405180910390fd5b8060018190555050565b600080831415610d8b5760009050610f5e565b600360009054906101000a900473ffffffffffffffffffffffffffffffffffffffff1673ffffffffffffffffffffffffffffffffffffffff1682600184510381518110610dd457fe5b602002602001015173ffffffffffffffffffffffffffffffffffffffff161415610e465760008390506000610e28612710610e1a846001546129fe90919063ffffffff16565b612abe90919063ffffffff16565b9050610e3d8183612a6e90919063ffffffff16565b92505050610f5e565b6060600460009054906101000a900473ffffffffffffffffffffffffffffffffffffffff1673ffffffffffffffffffffffffffffffffffffffff1663d06ca61f85856040518363ffffffff1660e01b8152600401610ea5929190614e19565b60006040518083038186803b158015610ebd57600080fd5b505afa158015610ed1573d6000803e3d6000fd5b505050506040513d6000823e3d601f19601f82011682018060405250810190610efa919061421a565b9050600081600183510381518110610f0e57fe5b602002602001015190506000610f43612710610f35846001546129fe90919063ffffffff16565b612abe90919063ffffffff16565b9050610f588183612a6e90919063ffffffff16565b93505050505b92915050565b600080841415610f775760009050611917565b600083600185510381518110610f8957fe5b60200260200101519050600083600185510381518110610fa557fe5b602002602001015190506000600460009054906101000a900473ffffffffffffffffffffffffffffffffffffffff1673ffffffffffffffffffffffffffffffffffffffff1663c45a01556040518163ffffffff1660e01b815260040160206040518083038186803b15801561101957600080fd5b505afa15801561102d573d6000803e3d6000fd5b505050506040513d601f19601f820116820180604052508101906110519190613f8f565b73ffffffffffffffffffffffffffffffffffffffff1663e6a4390584846040518363ffffffff1660e01b815260040161108b929190614ab0565b60206040518083038186803b1580156110a357600080fd5b505afa1580156110b7573d6000803e3d6000fd5b505050506040513d601f19601f820116820180604052508101906110db9190613f8f565b9050600080600360009054906101000a900473ffffffffffffffffffffffffffffffffffffffff1673ffffffffffffffffffffffffffffffffffffffff168860018a51038151811061112957fe5b602002602001015173ffffffffffffffffffffffffffffffffffffffff1614156111685761116160028a612abe90919063ffffffff16565b915061124d565b6060600460009054906101000a900473ffffffffffffffffffffffffffffffffffffffff1673ffffffffffffffffffffffffffffffffffffffff1663d06ca61f6111bc60028d612abe90919063ffffffff16565b8b6040518363ffffffff1660e01b81526004016111da929190614e19565b60006040518083038186803b1580156111f257600080fd5b505afa158015611206573d6000803e3d6000fd5b505050506040513d6000823e3d601f19601f8201168201806040525081019061122f919061421a565b90508060018251038151811061124157fe5b60200260200101519250505b600360009054906101000a900473ffffffffffffffffffffffffffffffffffffffff1673ffffffffffffffffffffffffffffffffffffffff168760018951038151811061129657fe5b602002602001015173ffffffffffffffffffffffffffffffffffffffff1614156112d5576112ce60028a612abe90919063ffffffff16565b90506113ba565b6060600460009054906101000a900473ffffffffffffffffffffffffffffffffffffffff1673ffffffffffffffffffffffffffffffffffffffff1663d06ca61f61132960028d612abe90919063ffffffff16565b8a6040518363ffffffff1660e01b8152600401611347929190614e19565b60006040518083038186803b15801561135f57600080fd5b505afa158015611373573d6000803e3d6000fd5b505050506040513d6000823e3d601f19601f8201168201806040525081019061139c919061421a565b9050806001825103815181106113ae57fe5b60200260200101519150505b6000808473ffffffffffffffffffffffffffffffffffffffff16630902f1ac6040518163ffffffff1660e01b815260040160606040518083038186803b15801561140357600080fd5b505afa158015611417573d6000803e3d6000fd5b505050506040513d601f19601f8201168201806040525081019061143b9190614284565b506dffffffffffffffffffffffffffff1691506dffffffffffffffffffffffffffff16915061147384826129fe90919063ffffffff16565b61148684846129fe90919063ffffffff16565b146117e15760006114a083856129fe90919063ffffffff16565b6114b383876129fe90919063ffffffff16565b1090506000816114ce576114c98686868661062f565b6114db565b6114da8587858761062f565b5b90506060600267ffffffffffffffff811180156114f757600080fd5b506040519080825280602002602001820160405280156115265781602001602082028036833780820191505090505b50905082156115c457888160008151811061153d57fe5b602002602001019073ffffffffffffffffffffffffffffffffffffffff16908173ffffffffffffffffffffffffffffffffffffffff1681525050898160018151811061158557fe5b602002602001019073ffffffffffffffffffffffffffffffffffffffff16908173ffffffffffffffffffffffffffffffffffffffff1681525050611655565b89816000815181106115d257fe5b602002602001019073ffffffffffffffffffffffffffffffffffffffff16908173ffffffffffffffffffffffffffffffffffffffff1681525050888160018151811061161a57fe5b602002602001019073ffffffffffffffffffffffffffffffffffffffff16908173ffffffffffffffffffffffffffffffffffffffff16815250505b6060600460009054906101000a900473ffffffffffffffffffffffffffffffffffffffff1673ffffffffffffffffffffffffffffffffffffffff1663d06ca61f84846040518363ffffffff1660e01b81526004016116b4929190614e19565b60006040518083038186803b1580156116cc57600080fd5b505afa1580156116e0573d6000803e3d6000fd5b505050506040513d6000823e3d601f19601f82011682018060405250810190611709919061421a565b905060008160018351038151811061171d57fe5b60200260200101519050841561178657611740818a61282290919063ffffffff16565b98506117558489612a6e90919063ffffffff16565b975061176a8188612a6e90919063ffffffff16565b965061177f848761282290919063ffffffff16565b95506117db565b611799848a612a6e90919063ffffffff16565b98506117ae818961282290919063ffffffff16565b97506117c3848861282290919063ffffffff16565b96506117d88187612a6e90919063ffffffff16565b95505b50505050505b60008573ffffffffffffffffffffffffffffffffffffffff166318160ddd6040518163ffffffff1660e01b815260040160206040518083038186803b15801561182957600080fd5b505afa15801561183d573d6000803e3d6000fd5b505050506040513d601f19601f8201168201806040525081019061186191906142fc565b9050600061188a8461187c84896129fe90919063ffffffff16565b612abe90919063ffffffff16565b905060006118b3846118a585896129fe90919063ffffffff16565b612abe90919063ffffffff16565b905060008183116118c457826118c6565b815b905060006118f36127106118e5846001546129fe90919063ffffffff16565b612abe90919063ffffffff16565b90506119088183612a6e90919063ffffffff16565b9c505050505050505050505050505b9392505050565b60015481565b61192c612b76565b73ffffffffffffffffffffffffffffffffffffffff1661194a610cc9565b73ffffffffffffffffffffffffffffffffffffffff16146119a0576040517f08c379a000000000000000000000000000000000000000000000000000000000815260040161199790614d7e565b60405180910390fd5b80600260006101000a81548173ffffffffffffffffffffffffffffffffffffffff021916908373ffffffffffffffffffffffffffffffffffffffff16021790555050565b60008273ffffffffffffffffffffffffffffffffffffffff16630dfe16816040518163ffffffff1660e01b815260040160206040518083038186803b158015611a2c57600080fd5b505afa158015611a40573d6000803e3d6000fd5b505050506040513d601f19601f82011682018060405250810190611a649190613f8f565b905060008373ffffffffffffffffffffffffffffffffffffffff1663d21220a76040518163ffffffff1660e01b815260040160206040518083038186803b158015611aae57600080fd5b505afa158015611ac2573d6000803e3d6000fd5b505050506040513d601f19601f82011682018060405250810190611ae69190613f8f565b90506000341115611b7557600360009054906101000a900473ffffffffffffffffffffffffffffffffffffffff1673ffffffffffffffffffffffffffffffffffffffff1663d0e30db0346040518263ffffffff1660e01b81526004016000604051808303818588803b158015611b5b57600080fd5b505af1158015611b6f573d6000803e3d6000fd5b50505050505b600087511115611b9e57611b888761200d565b50611b9c611b958861210b565b8383612ee8565b505b600088511115611bbf57611bb188612724565b50611bbd888383612ee8565b505b6000600360009054906101000a900473ffffffffffffffffffffffffffffffffffffffff1673ffffffffffffffffffffffffffffffffffffffff166370a08231306040518263ffffffff1660e01b8152600401611c1c9190614a7a565b60206040518083038186803b158015611c3457600080fd5b505afa158015611c48573d6000803e3d6000fd5b505050506040513d601f19601f82011682018060405250810190611c6c91906142fc565b9050611c8b611c85600283612abe90919063ffffffff16565b88612b7e565b50611cbb611cb5611ca6600284612abe90919063ffffffff16565b83612a6e90919063ffffffff16565b87612b7e565b506000611ddb8685858773ffffffffffffffffffffffffffffffffffffffff166370a08231306040518263ffffffff1660e01b8152600401611cfd9190614a7a565b60206040518083038186803b158015611d1557600080fd5b505afa158015611d29573d6000803e3d6000fd5b505050506040513d601f19601f82011682018060405250810190611d4d91906142fc565b8773ffffffffffffffffffffffffffffffffffffffff166370a08231306040518263ffffffff1660e01b8152600401611d869190614a7a565b60206040518083038186803b158015611d9e57600080fd5b505afa158015611db2573d6000803e3d6000fd5b505050506040513d601f19601f82011682018060405250810190611dd691906142fc565b61320a565b9050611de78682612db7565b905084811015611e2c576040517f08c379a0000000000000000000000000000000000000000000000000000000008152600401611e2390614c7e565b60405180910390fd5b611e5733828873ffffffffffffffffffffffffffffffffffffffff16612e629092919063ffffffff16565b50505050505050505050565b611e6b612b76565b73ffffffffffffffffffffffffffffffffffffffff16611e89610cc9565b73ffffffffffffffffffffffffffffffffffffffff1614611edf576040517f08c379a0000000000000000000000000000000000000000000000000000000008152600401611ed690614d7e565b60405180910390fd5b600073ffffffffffffffffffffffffffffffffffffffff168173ffffffffffffffffffffffffffffffffffffffff161415611f4f576040517f08c379a0000000000000000000000000000000000000000000000000000000008152600401611f4690614c9e565b60405180910390fd5b8073ffffffffffffffffffffffffffffffffffffffff166000809054906101000a900473ffffffffffffffffffffffffffffffffffffffff1673ffffffffffffffffffffffffffffffffffffffff167f8be0079c531659141344cd1fd0a4f28419497f9722a3daafe3b4186f6b6457e060405160405180910390a3806000806101000a81548173ffffffffffffffffffffffffffffffffffffffff021916908373ffffffffffffffffffffffffffffffffffffffff16021790555050565b606080825167ffffffffffffffff8111801561202857600080fd5b506040519080825280602002602001820160405280156120575781602001602082028036833780820191505090505b50905060008090505b8351811015612101576120c4333086848151811061207a57fe5b60200260200101516020015187858151811061209257fe5b60200260200101516000015173ffffffffffffffffffffffffffffffffffffffff16613511909392919063ffffffff16565b8381815181106120d057fe5b6020026020010151602001518282815181106120e857fe5b6020026020010181815250508080600101915050612060565b5080915050919050565b606080600283510267ffffffffffffffff8111801561212957600080fd5b5060405190808252806020026020018201604052801561216357816020015b612150613b92565b8152602001906001900390816121485790505b50905060008090505b835181101561249a5783818151811061218157fe5b60200260200101516000015173ffffffffffffffffffffffffffffffffffffffff1663095ea7b3600460009054906101000a900473ffffffffffffffffffffffffffffffffffffffff166007546040518363ffffffff1660e01b81526004016121eb929190614bfd565b602060405180830381600087803b15801561220557600080fd5b505af1158015612219573d6000803e3d6000fd5b505050506040513d601f19601f8201168201806040525081019061223d919061425b565b50600080600460009054906101000a900473ffffffffffffffffffffffffffffffffffffffff1673ffffffffffffffffffffffffffffffffffffffff1663baa2abde87858151811061228b57fe5b6020026020010151604001516000815181106122a357fe5b60200260200101518886815181106122b757fe5b6020026020010151606001516000815181106122cf57fe5b60200260200101518987815181106122e357fe5b60200260200101516020015160008030603c42016040518863ffffffff1660e01b81526004016123199796959493929190614b10565b6040805180830381600087803b15801561233257600080fd5b505af1158015612346573d6000803e3d6000fd5b505050506040513d601f19601f8201168201806040525081019061236a91906143f8565b91509150604051806060016040528087858151811061238557fe5b60200260200101516040015160008151811061239d57fe5b602002602001015173ffffffffffffffffffffffffffffffffffffffff1681526020018381526020018785815181106123d257fe5b6020026020010151604001518152508460028502815181106123f057fe5b6020026020010181905250604051806060016040528087858151811061241257fe5b60200260200101516060015160008151811061242a57fe5b602002602001015173ffffffffffffffffffffffffffffffffffffffff16815260200182815260200187858151811061245f57fe5b60200260200101516060015181525084600160028602018151811061248057fe5b60200260200101819052505050808060010191505061216c565b5080915050919050565b6000806000905060008090505b835181101561271a57600360009054906101000a900473ffffffffffffffffffffffffffffffffffffffff1673ffffffffffffffffffffffffffffffffffffffff168482815181106124ff57fe5b60200260200101516000015173ffffffffffffffffffffffffffffffffffffffff161461270d5783818151811061253257fe5b60200260200101516000015173ffffffffffffffffffffffffffffffffffffffff1663095ea7b3600460009054906101000a900473ffffffffffffffffffffffffffffffffffffffff166007546040518363ffffffff1660e01b815260040161259c929190614bfd565b602060405180830381600087803b1580156125b657600080fd5b505af11580156125ca573d6000803e3d6000fd5b505050506040513d601f19601f820116820180604052508101906125ee919061425b565b506060600460009054906101000a900473ffffffffffffffffffffffffffffffffffffffff1673ffffffffffffffffffffffffffffffffffffffff166338ed173986848151811061263b57fe5b602002602001015160200151600088868151811061265557fe5b60200260200101516040015130603c42016040518663ffffffff1660e01b8152600401612686959493929190614e49565b600060405180830381600087803b1580156126a057600080fd5b505af11580156126b4573d6000803e3d6000fd5b505050506040513d6000823e3d601f19601f820116820180604052508101906126dd919061421a565b9050612709816001835103815181106126f257fe5b60200260200101518461282290919063ffffffff16565b9250505b80806001019150506124b1565b5080915050919050565b606080825167ffffffffffffffff8111801561273f57600080fd5b5060405190808252806020026020018201604052801561276e5781602001602082028036833780820191505090505b50905060008090505b8351811015612818576127db333086848151811061279157fe5b6020026020010151602001518785815181106127a957fe5b60200260200101516000015173ffffffffffffffffffffffffffffffffffffffff16613511909392919063ffffffff16565b8381815181106127e757fe5b6020026020010151602001518282815181106127ff57fe5b6020026020010181815250508080600101915050612777565b5080915050919050565b60008082840190508381101561286d576040517f08c379a000000000000000000000000000000000000000000000000000000000815260040161286490614cbe565b60405180910390fd5b8091505092915050565b600080600154141561288b578190506128fb565b60006128b66127106128a8856001546129fe90919063ffffffff16565b612abe90919063ffffffff16565b90506128e4600260009054906101000a900473ffffffffffffffffffffffffffffffffffffffff1682612900565b6128f78184612a6e90919063ffffffff16565b9150505b919050565b60008273ffffffffffffffffffffffffffffffffffffffff1682600067ffffffffffffffff8111801561293257600080fd5b506040519080825280601f01601f1916602001820160405280156129655781602001600182028036833780820191505090505b506040516129739190614a48565b60006040518083038185875af1925050503d80600081146129b0576040519150601f19603f3d011682016040523d82523d6000602084013e6129b5565b606091505b50509050806129f9576040517f08c379a00000000000000000000000000000000000000000000000000000000081526004016129f090614cde565b60405180910390fd5b505050565b600080831415612a115760009050612a68565b6000828402905082848281612a2257fe5b0414612a63576040517f08c379a0000000000000000000000000000000000000000000000000000000008152600401612a5a90614d5e565b60405180910390fd5b809150505b92915050565b600082821115612ab3576040517f08c379a0000000000000000000000000000000000000000000000000000000008152600401612aaa90614cfe565b60405180910390fd5b818303905092915050565b6000808211612b02576040517f08c379a0000000000000000000000000000000000000000000000000000000008152600401612af990614d3e565b60405180910390fd5b818381612b0b57fe5b04905092915050565b60006003821115612b63578190506000600160028481612b3057fe5b040190505b81811015612b5d57809150600281828581612b4c57fe5b040181612b5557fe5b049050612b35565b50612b71565b60008214612b7057600190505b5b919050565b600033905090565b600080831480612bf25750600360009054906101000a900473ffffffffffffffffffffffffffffffffffffffff1673ffffffffffffffffffffffffffffffffffffffff1682600184510381518110612bd257fe5b602002602001015173ffffffffffffffffffffffffffffffffffffffff16145b15612bff57829050612db1565b600360009054906101000a900473ffffffffffffffffffffffffffffffffffffffff1673ffffffffffffffffffffffffffffffffffffffff1663095ea7b3600460009054906101000a900473ffffffffffffffffffffffffffffffffffffffff166007546040518363ffffffff1660e01b8152600401612c80929190614bfd565b602060405180830381600087803b158015612c9a57600080fd5b505af1158015612cae573d6000803e3d6000fd5b505050506040513d601f19601f82011682018060405250810190612cd2919061425b565b506060600460009054906101000a900473ffffffffffffffffffffffffffffffffffffffff1673ffffffffffffffffffffffffffffffffffffffff166338ed17398560008630603c42016040518663ffffffff1660e01b8152600401612d3c959493929190614e49565b600060405180830381600087803b158015612d5657600080fd5b505af1158015612d6a573d6000803e3d6000fd5b505050506040513d6000823e3d601f19601f82011682018060405250810190612d93919061421a565b905080600182510381518110612da557fe5b60200260200101519150505b92915050565b6000806001541415612dcb57819050612e5c565b6000612df6612710612de8856001546129fe90919063ffffffff16565b612abe90919063ffffffff16565b9050612e45600260009054906101000a900473ffffffffffffffffffffffffffffffffffffffff16828673ffffffffffffffffffffffffffffffffffffffff16612e629092919063ffffffff16565b612e588184612a6e90919063ffffffff16565b9150505b92915050565b612ee38363a9059cbb60e01b8484604051602401612e81929190614bfd565b604051602081830303815290604052907bffffffffffffffffffffffffffffffffffffffffffffffffffffffff19166020820180517bffffffffffffffffffffffffffffffffffffffffffffffffffffffff838183161783525050505061359a565b505050565b6000806000905060008090505b85518110156131fe578473ffffffffffffffffffffffffffffffffffffffff16868281518110612f2157fe5b60200260200101516000015173ffffffffffffffffffffffffffffffffffffffff1614158015612f9457508373ffffffffffffffffffffffffffffffffffffffff16868281518110612f6f57fe5b60200260200101516000015173ffffffffffffffffffffffffffffffffffffffff1614155b80156130055750600360009054906101000a900473ffffffffffffffffffffffffffffffffffffffff1673ffffffffffffffffffffffffffffffffffffffff16868281518110612fe057fe5b60200260200101516000015173ffffffffffffffffffffffffffffffffffffffff1614155b156131f15785818151811061301657fe5b60200260200101516000015173ffffffffffffffffffffffffffffffffffffffff1663095ea7b3600460009054906101000a900473ffffffffffffffffffffffffffffffffffffffff166007546040518363ffffffff1660e01b8152600401613080929190614bfd565b602060405180830381600087803b15801561309a57600080fd5b505af11580156130ae573d6000803e3d6000fd5b505050506040513d601f19601f820116820180604052508101906130d2919061425b565b506060600460009054906101000a900473ffffffffffffffffffffffffffffffffffffffff1673ffffffffffffffffffffffffffffffffffffffff166338ed173988848151811061311f57fe5b60200260200101516020015160008a868151811061313957fe5b60200260200101516040015130603c42016040518663ffffffff1660e01b815260040161316a959493929190614e49565b600060405180830381600087803b15801561318457600080fd5b505af1158015613198573d6000803e3d6000fd5b505050506040513d6000823e3d601f19601f820116820180604052508101906131c1919061421a565b90506131ed816001835103815181106131d657fe5b60200260200101518461282290919063ffffffff16565b9250505b8080600101915050612ef5565b50809150509392505050565b60008473ffffffffffffffffffffffffffffffffffffffff1663095ea7b3600460009054906101000a900473ffffffffffffffffffffffffffffffffffffffff166007546040518363ffffffff1660e01b815260040161326b929190614bfd565b602060405180830381600087803b15801561328557600080fd5b505af1158015613299573d6000803e3d6000fd5b505050506040513d601f19601f820116820180604052508101906132bd919061425b565b508373ffffffffffffffffffffffffffffffffffffffff1663095ea7b3600460009054906101000a900473ffffffffffffffffffffffffffffffffffffffff166007546040518363ffffffff1660e01b815260040161331d929190614bfd565b602060405180830381600087803b15801561333757600080fd5b505af115801561334b573d6000803e3d6000fd5b505050506040513d601f19601f8201168201806040525081019061336f919061425b565b506000806133808888888888613661565b915091506000806000600460009054906101000a900473ffffffffffffffffffffffffffffffffffffffff1673ffffffffffffffffffffffffffffffffffffffff1663e8e337008b8b888860008030603c42016040518963ffffffff1660e01b81526004016133f6989796959493929190614b7f565b606060405180830381600087803b15801561341057600080fd5b505af1158015613424573d6000803e3d6000fd5b505050506040513d601f19601f820116820180604052508101906134489190614434565b92509250925060006134638487612a6e90919063ffffffff16565b11156134a7576134a6336134808588612a6e90919063ffffffff16565b8c73ffffffffffffffffffffffffffffffffffffffff16612e629092919063ffffffff16565b5b60006134bc8386612a6e90919063ffffffff16565b1115613500576134ff336134d98487612a6e90919063ffffffff16565b8b73ffffffffffffffffffffffffffffffffffffffff16612e629092919063ffffffff16565b5b809550505050505095945050505050565b613594846323b872dd60e01b85858560405160240161353293929190614ad9565b604051602081830303815290604052907bffffffffffffffffffffffffffffffffffffffffffffffffffffffff19166020820180517bffffffffffffffffffffffffffffffffffffffffffffffffffffffff838183161783525050505061359a565b50505050565b60606135fc826040518060400160405280602081526020017f5361666545524332303a206c6f772d6c6576656c2063616c6c206661696c65648152508573ffffffffffffffffffffffffffffffffffffffff166139eb9092919063ffffffff16565b905060008151111561365c578080602001905181019061361c919061425b565b61365b576040517f08c379a000000000000000000000000000000000000000000000000000000000815260040161365290614dde565b60405180910390fd5b5b505050565b6000806000808873ffffffffffffffffffffffffffffffffffffffff16630902f1ac6040518163ffffffff1660e01b815260040160606040518083038186803b1580156136ad57600080fd5b505afa1580156136c1573d6000803e3d6000fd5b505050506040513d601f19601f820116820180604052508101906136e59190614284565b506dffffffffffffffffffffffffffff1691506dffffffffffffffffffffffffffff16915061371d86826129fe90919063ffffffff16565b61373086846129fe90919063ffffffff16565b14156137435785859350935050506139e1565b600061375883876129fe90919063ffffffff16565b61376b83896129fe90919063ffffffff16565b109050600081613786576137818888868661062f565b613793565b6137928789858761062f565b5b90506060600267ffffffffffffffff811180156137af57600080fd5b506040519080825280602002602001820160405280156137de5781602001602082028036833780820191505090505b509050826137ed578a8a6137f0565b898b5b826000815181106137fd57fe5b602002602001018360018151811061381157fe5b602002602001018273ffffffffffffffffffffffffffffffffffffffff1673ffffffffffffffffffffffffffffffffffffffff168152508273ffffffffffffffffffffffffffffffffffffffff1673ffffffffffffffffffffffffffffffffffffffff16815250505060008211156139d5576060600460009054906101000a900473ffffffffffffffffffffffffffffffffffffffff1673ffffffffffffffffffffffffffffffffffffffff166338ed17398460008530603c42016040518663ffffffff1660e01b81526004016138ec959493929190614e49565b600060405180830381600087803b15801561390657600080fd5b505af115801561391a573d6000803e3d6000fd5b505050506040513d6000823e3d601f19601f82011682018060405250810190613943919061421a565b90508315613991576139758160018351038151811061395e57fe5b60200260200101518b61282290919063ffffffff16565b995061398a838a612a6e90919063ffffffff16565b98506139d3565b6139a4838b612a6e90919063ffffffff16565b99506139d0816001835103815181106139b957fe5b60200260200101518a61282290919063ffffffff16565b98505b505b88889650965050505050505b9550959350505050565b60606139fa8484600085613a03565b90509392505050565b606082471015613a48576040517f08c379a0000000000000000000000000000000000000000000000000000000008152600401613a3f90614d1e565b60405180910390fd5b613a5185613b18565b613a90576040517f08c379a0000000000000000000000000000000000000000000000000000000008152600401613a8790614d9e565b60405180910390fd5b600060608673ffffffffffffffffffffffffffffffffffffffff168587604051613aba9190614a48565b60006040518083038185875af1925050503d8060008114613af7576040519150601f19603f3d011682016040523d82523d6000602084013e613afc565b606091505b5091509150613b0c828286613b2b565b92505050949350505050565b600080823b905060008111915050919050565b60608315613b3b57829050613b8b565b600083511115613b4e5782518084602001fd5b816040517f08c379a0000000000000000000000000000000000000000000000000000000008152600401613b829190614c5c565b60405180910390fd5b9392505050565b6040518060600160405280600073ffffffffffffffffffffffffffffffffffffffff16815260200160008152602001606081525090565b600081359050613bd881615133565b92915050565b600081519050613bed81615133565b92915050565b600082601f830112613c0457600080fd5b8135613c17613c1282614ed0565b614ea3565b91508181835260208401935060208101905083856020840282011115613c3c57600080fd5b60005b83811015613c6c5781613c528882613bc9565b845260208401935060208301925050600181019050613c3f565b5050505092915050565b600082601f830112613c8757600080fd5b8135613c9a613c9582614ef8565b614ea3565b9150818183526020840193506020810190508360005b83811015613ce05781358601613cc68882613df6565b845260208401935060208301925050600181019050613cb0565b5050505092915050565b600082601f830112613cfb57600080fd5b8135613d0e613d0982614f20565b614ea3565b9150818183526020840193506020810190508360005b83811015613d545781358601613d3a8882613e9a565b845260208401935060208301925050600181019050613d24565b5050505092915050565b600082601f830112613d6f57600080fd5b8151613d82613d7d82614f48565b614ea3565b91508181835260208401935060208101905083856020840282011115613da757600080fd5b60005b83811015613dd75781613dbd8882613f3c565b845260208401935060208301925050600181019050613daa565b5050505092915050565b600081519050613df08161514a565b92915050565b600060808284031215613e0857600080fd5b613e126080614ea3565b90506000613e2284828501613bc9565b6000830152506020613e3684828501613f27565b602083015250604082013567ffffffffffffffff811115613e5657600080fd5b613e6284828501613bf3565b604083015250606082013567ffffffffffffffff811115613e8257600080fd5b613e8e84828501613bf3565b60608301525092915050565b600060608284031215613eac57600080fd5b613eb66060614ea3565b90506000613ec684828501613bc9565b6000830152506020613eda84828501613f27565b602083015250604082013567ffffffffffffffff811115613efa57600080fd5b613f0684828501613bf3565b60408301525092915050565b600081519050613f2181615161565b92915050565b600081359050613f3681615178565b92915050565b600081519050613f4b81615178565b92915050565b600081519050613f608161518f565b92915050565b600060208284031215613f7857600080fd5b6000613f8684828501613bc9565b91505092915050565b600060208284031215613fa157600080fd5b6000613faf84828501613bde565b91505092915050565b600080600060608486031215613fcd57600080fd5b6000613fdb86828701613bc9565b9350506020613fec86828701613f27565b9250506040613ffd86828701613f27565b9150509250925092565b60008060008060008060c0878903121561402057600080fd5b600087013567ffffffffffffffff81111561403a57600080fd5b61404689828a01613cea565b965050602087013567ffffffffffffffff81111561406357600080fd5b61406f89828a01613c76565b955050604087013567ffffffffffffffff81111561408c57600080fd5b61409889828a01613bf3565b945050606087013567ffffffffffffffff8111156140b557600080fd5b6140c189828a01613bf3565b93505060806140d289828a01613bc9565b92505060a06140e389828a01613f27565b9150509295509295509295565b6000806000806080858703121561410657600080fd5b600085013567ffffffffffffffff81111561412057600080fd5b61412c87828801613cea565b945050602085013567ffffffffffffffff81111561414957600080fd5b61415587828801613c76565b935050604085013567ffffffffffffffff81111561417257600080fd5b61417e87828801613bf3565b925050606061418f87828801613f27565b91505092959194509250565b6000806000606084860312156141b057600080fd5b600084013567ffffffffffffffff8111156141ca57600080fd5b6141d686828701613cea565b935050602084013567ffffffffffffffff8111156141f357600080fd5b6141ff86828701613c76565b925050604061421086828701613f27565b9150509250925092565b60006020828403121561422c57600080fd5b600082015167ffffffffffffffff81111561424657600080fd5b61425284828501613d5e565b91505092915050565b60006020828403121561426d57600080fd5b600061427b84828501613de1565b91505092915050565b60008060006060848603121561429957600080fd5b60006142a786828701613f12565b93505060206142b886828701613f12565b92505060406142c986828701613f51565b9150509250925092565b6000602082840312156142e557600080fd5b60006142f384828501613f27565b91505092915050565b60006020828403121561430e57600080fd5b600061431c84828501613f3c565b91505092915050565b6000806040838503121561433857600080fd5b600061434685828601613f27565b925050602083013567ffffffffffffffff81111561436357600080fd5b61436f85828601613bf3565b9150509250929050565b60008060006060848603121561438e57600080fd5b600061439c86828701613f27565b935050602084013567ffffffffffffffff8111156143b957600080fd5b6143c586828701613bf3565b925050604084013567ffffffffffffffff8111156143e257600080fd5b6143ee86828701613bf3565b9150509250925092565b6000806040838503121561440b57600080fd5b600061441985828601613f3c565b925050602061442a85828601613f3c565b9150509250929050565b60008060006060848603121561444957600080fd5b600061445786828701613f3c565b935050602061446886828701613f3c565b925050604061447986828701613f3c565b9150509250925092565b6000806000806080858703121561449957600080fd5b60006144a787828801613f27565b94505060206144b887828801613f27565b93505060406144c987828801613f27565b92505060606144da87828801613f27565b91505092959194509250565b60006144f2838361451c565b60208301905092915050565b6145078161505f565b82525050565b61451681614fed565b82525050565b61452581614fdb565b82525050565b61453481614fdb565b82525050565b600061454582614f80565b61454f8185614fae565b935061455a83614f70565b8060005b8381101561458b57815161457288826144e6565b975061457d83614fa1565b92505060018101905061455e565b5085935050505092915050565b60006145a382614f8b565b6145ad8185614fbf565b93506145bd8185602086016150ef565b80840191505092915050565b6145d281615071565b82525050565b6145e181615095565b82525050565b6145f0816150b9565b82525050565b600061460182614f96565b61460b8185614fca565b935061461b8185602086016150ef565b61462481615122565b840191505092915050565b600061463c603483614fca565b91507f45787065637420616d6f756e744f757420746f2062652067726561746572207460008301527f68616e206d696e4f7574707574416d6f756e742e0000000000000000000000006020830152604082019050919050565b60006146a2602683614fca565b91507f4f776e61626c653a206e6577206f776e657220697320746865207a65726f206160008301527f64647265737300000000000000000000000000000000000000000000000000006020830152604082019050919050565b6000614708601b83614fca565b91507f536166654d6174683a206164646974696f6e206f766572666c6f7700000000006000830152602082019050919050565b6000614748603483614fca565b91507f5472616e7366657248656c7065723a3a736166655472616e736665724554483a60008301527f20455448207472616e73666572206661696c65640000000000000000000000006020830152604082019050919050565b60006147ae601e83614fca565b91507f536166654d6174683a207375627472616374696f6e206f766572666c6f7700006000830152602082019050919050565b60006147ee602683614fca565b91507f416464726573733a20696e73756666696369656e742062616c616e636520666f60008301527f722063616c6c00000000000000000000000000000000000000000000000000006020830152604082019050919050565b6000614854601a83614fca565b91507f536166654d6174683a206469766973696f6e206279207a65726f0000000000006000830152602082019050919050565b6000614894602183614fca565b91507f536166654d6174683a206d756c7469706c69636174696f6e206f766572666c6f60008301527f77000000000000000000000000000000000000000000000000000000000000006020830152604082019050919050565b60006148fa602083614fca565b91507f4f776e61626c653a2063616c6c6572206973206e6f7420746865206f776e65726000830152602082019050919050565b600061493a601d83614fca565b91507f416464726573733a2063616c6c20746f206e6f6e2d636f6e74726163740000006000830152602082019050919050565b600061497a602f83614fca565b91507f45787065637420616d74412076616c756520746f20626520677265617465722060008301527f7468616e20616d74422076616c756500000000000000000000000000000000006020830152604082019050919050565b60006149e0602a83614fca565b91507f5361666545524332303a204552433230206f7065726174696f6e20646964206e60008301527f6f742073756363656564000000000000000000000000000000000000000000006020830152604082019050919050565b614a4281615045565b82525050565b6000614a548284614598565b915081905092915050565b6000602082019050614a74600083018461452b565b92915050565b6000602082019050614a8f60008301846144fe565b92915050565b6000602082019050614aaa600083018461450d565b92915050565b6000604082019050614ac5600083018561452b565b614ad2602083018461452b565b9392505050565b6000606082019050614aee600083018661452b565b614afb602083018561452b565b614b086040830184614a39565b949350505050565b600060e082019050614b25600083018a61452b565b614b32602083018961452b565b614b3f6040830188614a39565b614b4c60608301876145e7565b614b5960808301866145e7565b614b6660a08301856144fe565b614b7360c0830184614a39565b98975050505050505050565b600061010082019050614b95600083018b61452b565b614ba2602083018a61452b565b614baf6040830189614a39565b614bbc6060830188614a39565b614bc960808301876145e7565b614bd660a08301866145e7565b614be360c08301856144fe565b614bf060e0830184614a39565b9998505050505050505050565b6000604082019050614c12600083018561452b565b614c1f6020830184614a39565b9392505050565b6000602082019050614c3b60008301846145c9565b92915050565b6000602082019050614c5660008301846145d8565b92915050565b60006020820190508181036000830152614c7681846145f6565b905092915050565b60006020820190508181036000830152614c978161462f565b9050919050565b60006020820190508181036000830152614cb781614695565b9050919050565b60006020820190508181036000830152614cd7816146fb565b9050919050565b60006020820190508181036000830152614cf78161473b565b9050919050565b60006020820190508181036000830152614d17816147a1565b9050919050565b60006020820190508181036000830152614d37816147e1565b9050919050565b60006020820190508181036000830152614d5781614847565b9050919050565b60006020820190508181036000830152614d7781614887565b9050919050565b60006020820190508181036000830152614d97816148ed565b9050919050565b60006020820190508181036000830152614db78161492d565b9050919050565b60006020820190508181036000830152614dd78161496d565b9050919050565b60006020820190508181036000830152614df7816149d3565b9050919050565b6000602082019050614e136000830184614a39565b92915050565b6000604082019050614e2e6000830185614a39565b8181036020830152614e40818461453a565b90509392505050565b600060a082019050614e5e6000830188614a39565b614e6b60208301876145e7565b8181036040830152614e7d818661453a565b9050614e8c60608301856144fe565b614e996080830184614a39565b9695505050505050565b6000604051905081810181811067ffffffffffffffff82111715614ec657600080fd5b8060405250919050565b600067ffffffffffffffff821115614ee757600080fd5b602082029050602081019050919050565b600067ffffffffffffffff821115614f0f57600080fd5b602082029050602081019050919050565b600067ffffffffffffffff821115614f3757600080fd5b602082029050602081019050919050565b600067ffffffffffffffff821115614f5f57600080fd5b602082029050602081019050919050565b6000819050602082019050919050565b600081519050919050565b600081519050919050565b600081519050919050565b6000602082019050919050565b600082825260208201905092915050565b600081905092915050565b600082825260208201905092915050565b6000614fe682615025565b9050919050565b6000614ff882615025565b9050919050565b60008115159050919050565b60006dffffffffffffffffffffffffffff82169050919050565b600073ffffffffffffffffffffffffffffffffffffffff82169050919050565b6000819050919050565b600063ffffffff82169050919050565b600061506a826150cb565b9050919050565b600061507c82615083565b9050919050565b600061508e82615025565b9050919050565b60006150a0826150a7565b9050919050565b60006150b282615025565b9050919050565b60006150c482615045565b9050919050565b60006150d6826150dd565b9050919050565b60006150e882615025565b9050919050565b60005b8381101561510d5780820151818401526020810190506150f2565b8381111561511c576000848401525b50505050565b6000601f19601f8301169050919050565b61513c81614fdb565b811461514757600080fd5b50565b61515381614fff565b811461515e57600080fd5b50565b61516a8161500b565b811461517557600080fd5b50565b61518181615045565b811461518c57600080fd5b50565b6151988161504f565b81146151a357600080fd5b5056fea26469706673582212205c443f19a5a1120b1f5ee6a3b7959654e8a6a5e7186a2cb1ce2e093902fe674664736f6c63430006060033",
    "immutableReferences": {},
    "source": "//SPDX-License-Identifier: Unlicense\r\npragma solidity =0.6.6;\r\npragma experimental ABIEncoderV2;\r\n\r\nimport \"@openzeppelin/contracts/token/ERC20/IERC20.sol\";\r\nimport \"@openzeppelin/contracts/token/ERC20/SafeERC20.sol\";\r\nimport \"@openzeppelin/contracts/math/SafeMath.sol\";\r\nimport \"@openzeppelin/contracts/access/Ownable.sol\";\r\nimport \"@uniswap/lib/contracts/libraries/TransferHelper.sol\";\r\n\r\nimport \"./interfaces/IUniswapV2Router02.sol\";\r\nimport \"./interfaces/IUniswapV2Pair.sol\";\r\nimport \"./interfaces/IUniswapV2Factory.sol\";\r\nimport \"./interfaces/IWETH.sol\";\r\nimport \"./uniswap/Math.sol\";\r\n\r\ncontract ApeBlenderImpl is Ownable {\r\n    using SafeMath for uint256;\r\n    using SafeERC20 for IERC20;\r\n\r\n    uint256 public apeFeeBps;\r\n    address payable public feeTreasury;\r\n    IWETH public wNative;\r\n    IUniswapV2Router02 public exchangeRouter;\r\n    uint256 public exchangeSwapFeeNumerator; // 3 for Uniswap, 25 for Pancakeswap\r\n    uint256 public exchangeSwapFeeDenominator; // 1000 for Uniswap, 10000 for Pancakeswap\r\n    uint256 MAX;\r\n\r\n    constructor(\r\n        uint256 _apeFeeBps,\r\n        address payable _feeTreasury,\r\n        address _exchangeRouter,\r\n        address _wNative,\r\n        uint256 _exchangeSwapFeeNumerator,\r\n        uint256 _exchangeSwapFeeDenominator\r\n    ) public {\r\n        apeFeeBps = _apeFeeBps;\r\n        feeTreasury = _feeTreasury;\r\n        exchangeRouter = IUniswapV2Router02(_exchangeRouter);\r\n        wNative = IWETH(_wNative);\r\n        exchangeSwapFeeNumerator = _exchangeSwapFeeNumerator;\r\n        exchangeSwapFeeDenominator = _exchangeSwapFeeDenominator;\r\n        MAX = 0xffffffffffffffffffffffffffffffffffffffffffffffffffffffffffffffff;\r\n    }\r\n\r\n    receive() external payable {}\r\n\r\n    struct InputToken {\r\n        address token;\r\n        uint256 amount;\r\n        address[] tokenToNativePath;\r\n    }\r\n\r\n    struct InputLP {\r\n        address token;\r\n        uint256 amount;\r\n        address[] token0ToNativePath;\r\n        address[] token1ToNativePath;\r\n    }\r\n\r\n    function transferNativeFeeToTreasury(uint256 amount)\r\n        private\r\n        returns (uint256)\r\n    {\r\n        if (apeFeeBps == 0) {\r\n            return amount;\r\n        }\r\n        uint256 fee = apeFeeBps.mul(amount).div(10000);\r\n        TransferHelper.safeTransferETH(feeTreasury, fee);\r\n        return amount.sub(fee);\r\n    }\r\n\r\n    function transferTokenFeeToTreasury(address token, uint256 amount)\r\n        private\r\n        returns (uint256)\r\n    {\r\n        if (apeFeeBps == 0) {\r\n            return amount;\r\n        }\r\n        uint256 fee = apeFeeBps.mul(amount).div(10000);\r\n        IERC20(token).safeTransfer(feeTreasury, fee);\r\n        return amount.sub(fee);\r\n    }\r\n\r\n    function swapTokensToNative(\r\n        InputToken[] memory inputTokens,\r\n        InputLP[] memory inputLPs,\r\n        uint256 minOutputAmount\r\n    ) public payable {\r\n        if (inputLPs.length > 0) {\r\n            _transferTokensToApe(inputLPs);\r\n            _swapTokensForWNative(_removeLiquidity(inputLPs));\r\n        }\r\n        if (inputTokens.length > 0) {\r\n            _transferTokensToApe(inputTokens);\r\n            _swapTokensForWNative(inputTokens);\r\n        }\r\n        uint256 wNativeBalance = wNative.balanceOf(address(this));\r\n        wNative.withdraw(wNativeBalance);\r\n        uint256 amountOut = wNativeBalance.add(msg.value);\r\n        amountOut = transferNativeFeeToTreasury(amountOut);\r\n        require(\r\n            amountOut >= minOutputAmount,\r\n            \"Expect amountOut to be greater than minOutputAmount.\"\r\n        );\r\n        TransferHelper.safeTransferETH(msg.sender, amountOut);\r\n    }\r\n\r\n    function swapTokensToToken(\r\n        InputToken[] memory inputTokens,\r\n        InputLP[] memory inputLPs,\r\n        address[] memory nativeToOutputPath,\r\n        uint256 minOutputAmount\r\n    ) public payable {\r\n        if (msg.value > 0) {\r\n            wNative.deposit{value: msg.value}();\r\n        }\r\n        if (inputLPs.length > 0) {\r\n            _transferTokensToApe(inputLPs);\r\n            _swapTokensForWNative(_removeLiquidity(inputLPs));\r\n        }\r\n        if (inputTokens.length > 0) {\r\n            _transferTokensToApe(inputTokens);\r\n            _swapTokensForWNative(inputTokens);\r\n        }\r\n        uint256 wNativeBalance = wNative.balanceOf(address(this));\r\n        uint256 amountOut = _swapWNativeForToken(\r\n            wNativeBalance,\r\n            nativeToOutputPath\r\n        );\r\n        amountOut = transferTokenFeeToTreasury(\r\n            nativeToOutputPath[nativeToOutputPath.length - 1],\r\n            amountOut\r\n        );\r\n        require(\r\n            amountOut >= minOutputAmount,\r\n            \"Expect amountOut to be greater than minOutputAmount.\"\r\n        );\r\n        IERC20(nativeToOutputPath[nativeToOutputPath.length - 1]).safeTransfer(\r\n            msg.sender,\r\n            amountOut\r\n        );\r\n    }\r\n\r\n    function swapTokensToLP(\r\n        InputToken[] memory inputTokens,\r\n        InputLP[] memory inputLPs,\r\n        address[] memory nativeToToken0Path,\r\n        address[] memory nativeToToken1Path,\r\n        address outputLP,\r\n        uint256 minOutputAmount\r\n    ) public payable {\r\n        address token0 = IUniswapV2Pair(outputLP).token0();\r\n        address token1 = IUniswapV2Pair(outputLP).token1();\r\n        if (msg.value > 0) {\r\n            wNative.deposit{value: msg.value}();\r\n        }\r\n        if (inputLPs.length > 0) {\r\n            _transferTokensToApe(inputLPs);\r\n            _swapTokensForWNativeExcept(\r\n                _removeLiquidity(inputLPs),\r\n                token0,\r\n                token1\r\n            );\r\n        }\r\n        if (inputTokens.length > 0) {\r\n            _transferTokensToApe(inputTokens);\r\n            _swapTokensForWNativeExcept(inputTokens, token0, token1);\r\n        }\r\n        uint256 wNativeBalance = wNative.balanceOf(address(this));\r\n        _swapWNativeForToken(wNativeBalance.div(2), nativeToToken0Path);\r\n        _swapWNativeForToken(\r\n            wNativeBalance.sub(wNativeBalance.div(2)),\r\n            nativeToToken1Path\r\n        );\r\n        uint256 amountOut = _optimalSwapToLp(\r\n            outputLP,\r\n            token0,\r\n            token1,\r\n            IERC20(token0).balanceOf(address(this)),\r\n            IERC20(token1).balanceOf(address(this))\r\n        );\r\n        amountOut = transferTokenFeeToTreasury(outputLP, amountOut);\r\n        require(\r\n            amountOut >= minOutputAmount,\r\n            \"Expect amountOut to be greater than minOutputAmount.\"\r\n        );\r\n        IERC20(outputLP).safeTransfer(msg.sender, amountOut);\r\n    }\r\n\r\n    // Token version\r\n    function _transferTokensToApe(InputToken[] memory inputTokens)\r\n        private\r\n        returns (uint256[] memory)\r\n    {\r\n        uint256[] memory outputAmounts = new uint256[](inputTokens.length);\r\n        for (uint256 i = 0; i < inputTokens.length; i++) {\r\n            IERC20(inputTokens[i].token).safeTransferFrom(\r\n                msg.sender,\r\n                address(this),\r\n                inputTokens[i].amount\r\n            );\r\n            outputAmounts[i] = inputTokens[i].amount;\r\n        }\r\n        return outputAmounts;\r\n    }\r\n\r\n    // LP version\r\n    function _transferTokensToApe(InputLP[] memory inputLPs)\r\n        private\r\n        returns (uint256[] memory)\r\n    {\r\n        uint256[] memory outputAmounts = new uint256[](inputLPs.length);\r\n        for (uint256 i = 0; i < inputLPs.length; i++) {\r\n            IERC20(inputLPs[i].token).safeTransferFrom(\r\n                msg.sender,\r\n                address(this),\r\n                inputLPs[i].amount\r\n            );\r\n            outputAmounts[i] = inputLPs[i].amount;\r\n        }\r\n        return outputAmounts;\r\n    }\r\n\r\n    function _removeLiquidity(InputLP[] memory inputLPs)\r\n        private\r\n        returns (InputToken[] memory)\r\n    {\r\n        InputToken[] memory outputTokens = new InputToken[](\r\n            inputLPs.length * 2\r\n        );\r\n        for (uint256 i = 0; i < inputLPs.length; i++) {\r\n            IERC20(inputLPs[i].token).approve(address(exchangeRouter), MAX);\r\n            (uint256 amount0, uint256 amount1) = exchangeRouter.removeLiquidity(\r\n                inputLPs[i].token0ToNativePath[0],\r\n                inputLPs[i].token1ToNativePath[0],\r\n                inputLPs[i].amount,\r\n                0,\r\n                0,\r\n                address(this),\r\n                now + 60\r\n            );\r\n            outputTokens[i * 2] = InputToken(\r\n                inputLPs[i].token0ToNativePath[0],\r\n                amount0,\r\n                inputLPs[i].token0ToNativePath\r\n            );\r\n            outputTokens[(i * 2) + 1] = InputToken(\r\n                inputLPs[i].token1ToNativePath[0],\r\n                amount1,\r\n                inputLPs[i].token1ToNativePath\r\n            );\r\n        }\r\n        return outputTokens;\r\n    }\r\n\r\n    function _swapTokensForWNative(InputToken[] memory inputTokens)\r\n        private\r\n        returns (uint256)\r\n    {\r\n        uint256 totalNative = 0;\r\n        for (uint256 i = 0; i < inputTokens.length; i++) {\r\n            // Swap non wNative token\r\n            if (inputTokens[i].token != address(wNative)) {\r\n                IERC20(inputTokens[i].token).approve(\r\n                    address(exchangeRouter),\r\n                    MAX\r\n                );\r\n                uint256[] memory amountOuts = exchangeRouter\r\n                    .swapExactTokensForTokens(\r\n                        inputTokens[i].amount,\r\n                        0,\r\n                        inputTokens[i].tokenToNativePath,\r\n                        address(this),\r\n                        now + 60\r\n                    );\r\n                totalNative = totalNative.add(\r\n                    amountOuts[amountOuts.length - 1]\r\n                );\r\n            }\r\n        }\r\n        return totalNative;\r\n    }\r\n\r\n    function _swapTokensForWNativeExcept(\r\n        InputToken[] memory inputTokens,\r\n        address token0,\r\n        address token1\r\n    ) private returns (uint256) {\r\n        uint256 totalNative = 0;\r\n        for (uint256 i = 0; i < inputTokens.length; i++) {\r\n            // Skip token0, token1 and wNative\r\n            if (\r\n                inputTokens[i].token != token0 &&\r\n                inputTokens[i].token != token1 &&\r\n                inputTokens[i].token != address(wNative)\r\n            ) {\r\n                IERC20(inputTokens[i].token).approve(\r\n                    address(exchangeRouter),\r\n                    MAX\r\n                );\r\n                uint256[] memory amountOuts = exchangeRouter\r\n                    .swapExactTokensForTokens(\r\n                        inputTokens[i].amount,\r\n                        0,\r\n                        inputTokens[i].tokenToNativePath,\r\n                        address(this),\r\n                        now + 60\r\n                    );\r\n                totalNative = totalNative.add(\r\n                    amountOuts[amountOuts.length - 1]\r\n                );\r\n            }\r\n        }\r\n        return totalNative;\r\n    }\r\n\r\n    function _swapWNativeForToken(uint256 amount, address[] memory path)\r\n        private\r\n        returns (uint256)\r\n    {\r\n        if (amount == 0 || path[path.length - 1] == address(wNative)) {\r\n            return amount;\r\n        }\r\n        wNative.approve(address(exchangeRouter), MAX);\r\n        uint256[] memory amountOuts = exchangeRouter.swapExactTokensForTokens(\r\n            amount,\r\n            0,\r\n            path,\r\n            address(this),\r\n            now + 60\r\n        );\r\n        return amountOuts[amountOuts.length - 1];\r\n    }\r\n\r\n    function _optimalSwapToLp(\r\n        address outputLP,\r\n        address token0,\r\n        address token1,\r\n        uint256 amount0,\r\n        uint256 amount1\r\n    ) private returns (uint256) {\r\n        IERC20(token0).approve(address(exchangeRouter), MAX);\r\n        IERC20(token1).approve(address(exchangeRouter), MAX);\r\n        (\r\n            uint256 token0Amount,\r\n            uint256 token1Amount\r\n        ) = _optimalSwapForAddingLiquidity(\r\n                outputLP,\r\n                token0,\r\n                token1,\r\n                amount0,\r\n                amount1\r\n            );\r\n        (\r\n            uint256 addedToken0,\r\n            uint256 addedToken1,\r\n            uint256 lpAmount\r\n        ) = exchangeRouter.addLiquidity(\r\n                token0,\r\n                token1,\r\n                token0Amount,\r\n                token1Amount,\r\n                0,\r\n                0,\r\n                address(this),\r\n                now + 60\r\n            );\r\n\r\n        // Transfer dust\r\n        if (token0Amount.sub(addedToken0) > 0) {\r\n            IERC20(token0).safeTransfer(\r\n                msg.sender,\r\n                token0Amount.sub(addedToken0)\r\n            );\r\n        }\r\n\r\n        if (token1Amount.sub(addedToken1) > 0) {\r\n            IERC20(token1).safeTransfer(\r\n                msg.sender,\r\n                token1Amount.sub(addedToken1)\r\n            );\r\n        }\r\n\r\n        return lpAmount;\r\n    }\r\n\r\n    function _optimalSwapForAddingLiquidity(\r\n        address lp,\r\n        address token0,\r\n        address token1,\r\n        uint256 token0Amount,\r\n        uint256 token1Amount\r\n    ) private returns (uint256, uint256) {\r\n        (uint256 res0, uint256 res1, ) = IUniswapV2Pair(lp).getReserves();\r\n        if (res0.mul(token1Amount) == res1.mul(token0Amount)) {\r\n            return (token0Amount, token1Amount);\r\n        }\r\n\r\n        bool reverse = token0Amount.mul(res1) < token1Amount.mul(res0);\r\n\r\n        uint256 optimalSwapAmount = reverse\r\n            ? calculateOptimalSwapAmount(token1Amount, token0Amount, res1, res0)\r\n            : calculateOptimalSwapAmount(\r\n                token0Amount,\r\n                token1Amount,\r\n                res0,\r\n                res1\r\n            );\r\n\r\n        address[] memory path = new address[](2);\r\n        (path[0], path[1]) = reverse ? (token1, token0) : (token0, token1);\r\n        if (optimalSwapAmount > 0) {\r\n            uint256[] memory amountOuts = exchangeRouter\r\n                .swapExactTokensForTokens(\r\n                    optimalSwapAmount,\r\n                    0,\r\n                    path,\r\n                    address(this),\r\n                    now + 60\r\n                );\r\n            if (reverse) {\r\n                token0Amount = token0Amount.add(\r\n                    amountOuts[amountOuts.length - 1]\r\n                );\r\n                token1Amount = token1Amount.sub(optimalSwapAmount);\r\n            } else {\r\n                token0Amount = token0Amount.sub(optimalSwapAmount);\r\n                token1Amount = token1Amount.add(\r\n                    amountOuts[amountOuts.length - 1]\r\n                );\r\n            }\r\n        }\r\n\r\n        return (token0Amount, token1Amount);\r\n    }\r\n\r\n    function calculateOptimalSwapAmount(\r\n        uint256 amtA,\r\n        uint256 amtB,\r\n        uint256 resA,\r\n        uint256 resB\r\n    ) public view returns (uint256) {\r\n        require(\r\n            amtA.mul(resB) >= amtB.mul(resA),\r\n            \"Expect amtA value to be greater than amtB value\"\r\n        );\r\n\r\n        uint256 a = exchangeSwapFeeDenominator.sub(exchangeSwapFeeNumerator);\r\n        uint256 b = uint256(\r\n            exchangeSwapFeeDenominator.mul(2).sub(exchangeSwapFeeNumerator)\r\n        ).mul(resA);\r\n        uint256 _c = (amtA.mul(resB)).sub(amtB.mul(resA));\r\n        uint256 c = _c.mul(exchangeSwapFeeDenominator).div(amtB.add(resB)).mul(\r\n            resA\r\n        );\r\n\r\n        uint256 d = a.mul(c).mul(4);\r\n        uint256 e = Math.sqrt(b.mul(b).add(d));\r\n\r\n        uint256 numerator = e.sub(b);\r\n        uint256 denominator = a.mul(2);\r\n\r\n        return numerator.div(denominator);\r\n    }\r\n\r\n    function getWNativeToTokenAmount(\r\n        uint256 wNativeAmount,\r\n        address[] memory nativeToOutputPath\r\n    ) public view returns (uint256) {\r\n        if (wNativeAmount == 0) {\r\n            return 0;\r\n        }\r\n        if (\r\n            nativeToOutputPath[nativeToOutputPath.length - 1] ==\r\n            address(wNative)\r\n        ) {\r\n            uint256 output = wNativeAmount;\r\n            uint256 fee = apeFeeBps.mul(output).div(10000);\r\n            return output.sub(fee);\r\n        }\r\n        uint256[] memory amountOuts = exchangeRouter.getAmountsOut(\r\n            wNativeAmount,\r\n            nativeToOutputPath\r\n        );\r\n        uint256 output = amountOuts[amountOuts.length - 1];\r\n        uint256 fee = apeFeeBps.mul(output).div(10000);\r\n        return output.sub(fee);\r\n    }\r\n\r\n    function getWNativeToLpAmount(\r\n        uint256 wNativeAmount,\r\n        address[] memory nativeToToken0Path,\r\n        address[] memory nativeToToken1Path\r\n    ) public view returns (uint256) {\r\n        if (wNativeAmount == 0) {\r\n            return 0;\r\n        }\r\n        address token0 = nativeToToken0Path[nativeToToken0Path.length - 1];\r\n        address token1 = nativeToToken1Path[nativeToToken1Path.length - 1];\r\n        address lp = IUniswapV2Factory(exchangeRouter.factory()).getPair(\r\n            token0,\r\n            token1\r\n        );\r\n        uint256 token0Amount;\r\n        uint256 token1Amount;\r\n\r\n        // STEP 1: Swap wNative to token0 and token1\r\n        if (\r\n            nativeToToken0Path[nativeToToken0Path.length - 1] ==\r\n            address(wNative)\r\n        ) {\r\n            token0Amount = wNativeAmount.div(2);\r\n        } else {\r\n            uint256[] memory amountOuts0 = exchangeRouter.getAmountsOut(\r\n                wNativeAmount.div(2),\r\n                nativeToToken0Path\r\n            );\r\n            token0Amount = amountOuts0[amountOuts0.length - 1];\r\n        }\r\n\r\n        if (\r\n            nativeToToken1Path[nativeToToken1Path.length - 1] ==\r\n            address(wNative)\r\n        ) {\r\n            token1Amount = wNativeAmount.div(2);\r\n        } else {\r\n            uint256[] memory amountOuts1 = exchangeRouter.getAmountsOut(\r\n                wNativeAmount.div(2),\r\n                nativeToToken1Path\r\n            );\r\n            token1Amount = amountOuts1[amountOuts1.length - 1];\r\n        }\r\n\r\n        // STEP 2: Optimal swap for adding liquidity\r\n        (uint256 res0, uint256 res1, ) = IUniswapV2Pair(lp).getReserves();\r\n        if (res0.mul(token1Amount) != res1.mul(token0Amount)) {\r\n            bool reverse = token0Amount.mul(res1) < token1Amount.mul(res0);\r\n            uint256 swapAmount = reverse\r\n                ? calculateOptimalSwapAmount(\r\n                    token1Amount,\r\n                    token0Amount,\r\n                    res1,\r\n                    res0\r\n                )\r\n                : calculateOptimalSwapAmount(\r\n                    token0Amount,\r\n                    token1Amount,\r\n                    res0,\r\n                    res1\r\n                );\r\n\r\n            address[] memory swapPath = new address[](2);\r\n            if (reverse) {\r\n                swapPath[0] = token1;\r\n                swapPath[1] = token0;\r\n            } else {\r\n                swapPath[0] = token0;\r\n                swapPath[1] = token1;\r\n            }\r\n            uint256[] memory optimalSwapAmountOuts = exchangeRouter\r\n                .getAmountsOut(swapAmount, swapPath);\r\n            uint256 optimalSwapAmountOut = optimalSwapAmountOuts[\r\n                optimalSwapAmountOuts.length - 1\r\n            ];\r\n            if (reverse) {\r\n                token0Amount = token0Amount.add(optimalSwapAmountOut);\r\n                token1Amount = token1Amount.sub(swapAmount);\r\n                res0 = res0.sub(optimalSwapAmountOut);\r\n                res1 = res1.add(swapAmount);\r\n            } else {\r\n                token0Amount = token0Amount.sub(swapAmount);\r\n                token1Amount = token1Amount.add(optimalSwapAmountOut);\r\n                res0 = res0.add(swapAmount);\r\n                res1 = res1.sub(optimalSwapAmountOut);\r\n            }\r\n        }\r\n\r\n        // STEP 3: Calculate lp token output\r\n        uint256 totalSupply = IUniswapV2Pair(lp).totalSupply();\r\n        uint256 outputOptimal0 = token0Amount.mul(totalSupply).div(res0);\r\n        uint256 outputOptimal1 = token1Amount.mul(totalSupply).div(res1);\r\n\r\n        uint256 output = outputOptimal0 > outputOptimal1\r\n            ? outputOptimal1\r\n            : outputOptimal0;\r\n\r\n        // STEP 4: Calculate fee\r\n        uint256 fee = apeFeeBps.mul(output).div(10000);\r\n        return output.sub(fee);\r\n    }\r\n\r\n    function setApeFeeBps(uint256 _apeFeeBps) public onlyOwner {\r\n        apeFeeBps = _apeFeeBps;\r\n    }\r\n\r\n    function setFeeTreasury(address _feeTreasury) public onlyOwner {\r\n        feeTreasury = payable(_feeTreasury);\r\n    }\r\n\r\n    function setExchange(\r\n        address router,\r\n        uint256 _exchangeSwapFeeNumerator,\r\n        uint256 _exchangeSwapFeeDenominator\r\n    ) public onlyOwner {\r\n        exchangeRouter = IUniswapV2Router02(router);\r\n        exchangeSwapFeeNumerator = _exchangeSwapFeeNumerator;\r\n        exchangeSwapFeeDenominator = _exchangeSwapFeeDenominator;\r\n    }\r\n}",
    "sourcePath": "D:\\DappUni\\router-protocol\\ape-blender-fork\\contracts\\ApeBlenderImpl.sol",
    "compiler": {
        "name": "solc",
        "version": "0.6.6+commit.6c089d02.Emscripten.clang"
    },
    "schemaVersion": "3.4.2",
    "updatedAt": "2021-09-12T06:08:01.480Z",
    "networkType": "ethereum",
    "devdoc": {
        "methods": {
            "owner()": {
                "details": "Returns the address of the current owner."
            },
            "renounceOwnership()": {
                "details": "Leaves the contract without owner. It will not be possible to call `onlyOwner` functions anymore. Can only be called by the current owner.     * NOTE: Renouncing ownership will leave the contract without an owner, thereby removing any functionality that is only available to the owner."
            },
            "transferOwnership(address)": {
                "details": "Transfers ownership of the contract to a new account (`newOwner`). Can only be called by the current owner."
            }
        }
    },
    "userdoc": {
        "methods": {}
    }
}